{
  "_format": "hh-sol-artifact-1",
  "contractName": "CryptoDevsDAO",
  "sourceName": "contracts/CryptoDevsDAO.sol",
  "abi": [
    {
      "inputs": [
        {
          "internalType": "address",
          "name": "_nftMarketplace",
          "type": "address"
        },
        {
          "internalType": "address",
          "name": "_cryptoDevsNFT",
          "type": "address"
        }
      ],
      "stateMutability": "payable",
      "type": "constructor"
    },
    {
      "anonymous": false,
      "inputs": [
        {
          "indexed": true,
          "internalType": "address",
          "name": "previousOwner",
          "type": "address"
        },
        {
          "indexed": true,
          "internalType": "address",
          "name": "newOwner",
          "type": "address"
        }
      ],
      "name": "OwnershipTransferred",
      "type": "event"
    },
    {
      "stateMutability": "payable",
      "type": "fallback"
    },
    {
      "inputs": [
        {
          "internalType": "uint256",
          "name": "_nftTokenId",
          "type": "uint256"
        }
      ],
      "name": "createProposal",
      "outputs": [
        {
          "internalType": "uint256",
          "name": "",
          "type": "uint256"
        }
      ],
      "stateMutability": "nonpayable",
      "type": "function"
    },
    {
      "inputs": [
        {
          "internalType": "uint256",
          "name": "proposalIndex",
          "type": "uint256"
        }
      ],
      "name": "executeProposal",
      "outputs": [],
      "stateMutability": "nonpayable",
      "type": "function"
    },
    {
      "inputs": [],
      "name": "numProposals",
      "outputs": [
        {
          "internalType": "uint256",
          "name": "",
          "type": "uint256"
        }
      ],
      "stateMutability": "view",
      "type": "function"
    },
    {
      "inputs": [],
      "name": "owner",
      "outputs": [
        {
          "internalType": "address",
          "name": "",
          "type": "address"
        }
      ],
      "stateMutability": "view",
      "type": "function"
    },
    {
      "inputs": [
        {
          "internalType": "uint256",
          "name": "",
          "type": "uint256"
        }
      ],
      "name": "proposals",
      "outputs": [
        {
          "internalType": "uint256",
          "name": "nftTokenId",
          "type": "uint256"
        },
        {
          "internalType": "uint256",
          "name": "deadline",
          "type": "uint256"
        },
        {
          "internalType": "uint256",
          "name": "yayVotes",
          "type": "uint256"
        },
        {
          "internalType": "uint256",
          "name": "nayVotes",
          "type": "uint256"
        },
        {
          "internalType": "bool",
          "name": "executed",
          "type": "bool"
        }
      ],
      "stateMutability": "view",
      "type": "function"
    },
    {
      "inputs": [],
      "name": "renounceOwnership",
      "outputs": [],
      "stateMutability": "nonpayable",
      "type": "function"
    },
    {
      "inputs": [
        {
          "internalType": "address",
          "name": "newOwner",
          "type": "address"
        }
      ],
      "name": "transferOwnership",
      "outputs": [],
      "stateMutability": "nonpayable",
      "type": "function"
    },
    {
      "inputs": [
        {
          "internalType": "uint256",
          "name": "proposalIndex",
          "type": "uint256"
        },
        {
          "internalType": "enum CryptoDevsDAO.Vote",
          "name": "vote",
          "type": "uint8"
        }
      ],
      "name": "voteOnProposal",
      "outputs": [],
      "stateMutability": "nonpayable",
      "type": "function"
    },
    {
      "inputs": [],
      "name": "withdrawEther",
      "outputs": [],
      "stateMutability": "nonpayable",
      "type": "function"
    },
    {
      "stateMutability": "payable",
      "type": "receive"
    }
  ],
  "bytecode": "0x6080604052604051620018ad380380620018ad833981810160405281019062000029919062000209565b620000496200003d620000d360201b60201c565b620000db60201b60201c565b81600360006101000a81548173ffffffffffffffffffffffffffffffffffffffff021916908373ffffffffffffffffffffffffffffffffffffffff16021790555080600460006101000a81548173ffffffffffffffffffffffffffffffffffffffff021916908373ffffffffffffffffffffffffffffffffffffffff160217905550505062000250565b600033905090565b60008060009054906101000a900473ffffffffffffffffffffffffffffffffffffffff169050816000806101000a81548173ffffffffffffffffffffffffffffffffffffffff021916908373ffffffffffffffffffffffffffffffffffffffff1602179055508173ffffffffffffffffffffffffffffffffffffffff168173ffffffffffffffffffffffffffffffffffffffff167f8be0079c531659141344cd1fd0a4f28419497f9722a3daafe3b4186f6b6457e060405160405180910390a35050565b600080fd5b600073ffffffffffffffffffffffffffffffffffffffff82169050919050565b6000620001d182620001a4565b9050919050565b620001e381620001c4565b8114620001ef57600080fd5b50565b6000815190506200020381620001d8565b92915050565b600080604083850312156200022357620002226200019f565b5b60006200023385828601620001f2565b92505060206200024685828601620001f2565b9150509250929050565b61164d80620002606000396000f3fe60806040526004361061008a5760003560e01c8063715018a611610059578063715018a6146101655780637362377b1461017c5780638da5cb5b14610193578063efafb22e146101be578063f2fde38b146101e757610091565b8063013cf08b146100935780630d61b519146100d4578063400e3949146100fd5780635a43dc001461012857610091565b3661009157005b005b34801561009f57600080fd5b506100ba60048036038101906100b59190610e3d565b610210565b6040516100cb959493929190610e94565b60405180910390f35b3480156100e057600080fd5b506100fb60048036038101906100f69190610e3d565b610253565b005b34801561010957600080fd5b506101126105aa565b60405161011f9190610ee7565b60405180910390f35b34801561013457600080fd5b5061014f600480360381019061014a9190610e3d565b6105b0565b60405161015c9190610ee7565b60405180910390f35b34801561017157600080fd5b5061017a6107d1565b005b34801561018857600080fd5b506101916107e5565b005b34801561019f57600080fd5b506101a861083d565b6040516101b59190610f43565b60405180910390f35b3480156101ca57600080fd5b506101e560048036038101906101e09190610f83565b610866565b005b3480156101f357600080fd5b5061020e60048036038101906102099190610fef565b610c35565b005b60016020528060005260406000206000915090508060000154908060010154908060020154908060030154908060040160009054906101000a900460ff16905085565b6000600460009054906101000a900473ffffffffffffffffffffffffffffffffffffffff1673ffffffffffffffffffffffffffffffffffffffff166370a08231336040518263ffffffff1660e01b81526004016102b09190610f43565b602060405180830381865afa1580156102cd573d6000803e3d6000fd5b505050506040513d601f19601f820116820180604052508101906102f19190611031565b11610331576040517f08c379a0000000000000000000000000000000000000000000000000000000008152600401610328906110e1565b60405180910390fd5b80426001600083815260200190815260200160002060010154111561038b576040517f08c379a00000000000000000000000000000000000000000000000000000000081526004016103829061114d565b60405180910390fd5b600015156001600083815260200190815260200160002060040160009054906101000a900460ff161515146103f5576040517f08c379a00000000000000000000000000000000000000000000000000000000081526004016103ec906111b9565b60405180910390fd5b6000600160008481526020019081526020016000209050806003015481600201541115610588576000600360009054906101000a900473ffffffffffffffffffffffffffffffffffffffff1673ffffffffffffffffffffffffffffffffffffffff166398d5fdca6040518163ffffffff1660e01b8152600401602060405180830381865afa15801561048b573d6000803e3d6000fd5b505050506040513d601f19601f820116820180604052508101906104af9190611031565b9050804710156104f4576040517f08c379a00000000000000000000000000000000000000000000000000000000081526004016104eb90611225565b60405180910390fd5b600360009054906101000a900473ffffffffffffffffffffffffffffffffffffffff1673ffffffffffffffffffffffffffffffffffffffff1663efef39a18284600001546040518363ffffffff1660e01b81526004016105549190610ee7565b6000604051808303818588803b15801561056d57600080fd5b505af1158015610581573d6000803e3d6000fd5b5050505050505b60018160040160006101000a81548160ff021916908315150217905550505050565b60025481565b600080600460009054906101000a900473ffffffffffffffffffffffffffffffffffffffff1673ffffffffffffffffffffffffffffffffffffffff166370a08231336040518263ffffffff1660e01b815260040161060e9190610f43565b602060405180830381865afa15801561062b573d6000803e3d6000fd5b505050506040513d601f19601f8201168201806040525081019061064f9190611031565b1161068f576040517f08c379a0000000000000000000000000000000000000000000000000000000008152600401610686906110e1565b60405180910390fd5b600360009054906101000a900473ffffffffffffffffffffffffffffffffffffffff1673ffffffffffffffffffffffffffffffffffffffff166396e494e8836040518263ffffffff1660e01b81526004016106ea9190610ee7565b602060405180830381865afa158015610707573d6000803e3d6000fd5b505050506040513d601f19601f8201168201806040525081019061072b9190611271565b61076a576040517f08c379a0000000000000000000000000000000000000000000000000000000008152600401610761906112ea565b60405180910390fd5b6000600160006002548152602001908152602001600020905082816000018190555061012c4261079a9190611339565b8160010181905550600260008154809291906107b59061136d565b919050555060016002546107c991906113b5565b915050919050565b6107d9610cb8565b6107e36000610d36565b565b6107ed610cb8565b6107f561083d565b73ffffffffffffffffffffffffffffffffffffffff166108fc479081150290604051600060405180830381858888f1935050505015801561083a573d6000803e3d6000fd5b50565b60008060009054906101000a900473ffffffffffffffffffffffffffffffffffffffff16905090565b6000600460009054906101000a900473ffffffffffffffffffffffffffffffffffffffff1673ffffffffffffffffffffffffffffffffffffffff166370a08231336040518263ffffffff1660e01b81526004016108c39190610f43565b602060405180830381865afa1580156108e0573d6000803e3d6000fd5b505050506040513d601f19601f820116820180604052508101906109049190611031565b11610944576040517f08c379a000000000000000000000000000000000000000000000000000000000815260040161093b906110e1565b60405180910390fd5b814260016000838152602001908152602001600020600101541161099d576040517f08c379a000000000000000000000000000000000000000000000000000000000815260040161099490611435565b60405180910390fd5b60006001600085815260200190815260200160002090506000600460009054906101000a900473ffffffffffffffffffffffffffffffffffffffff1673ffffffffffffffffffffffffffffffffffffffff166370a08231336040518263ffffffff1660e01b8152600401610a119190610f43565b602060405180830381865afa158015610a2e573d6000803e3d6000fd5b505050506040513d601f19601f82011682018060405250810190610a529190611031565b90506000805b82811015610b81576000600460009054906101000a900473ffffffffffffffffffffffffffffffffffffffff1673ffffffffffffffffffffffffffffffffffffffff16632f745c5933846040518363ffffffff1660e01b8152600401610abf929190611455565b602060405180830381865afa158015610adc573d6000803e3d6000fd5b505050506040513d601f19601f82011682018060405250810190610b009190611031565b90506000151585600501600083815260200190815260200160002060009054906101000a900460ff16151503610b6d578280610b3b9061136d565b935050600185600501600083815260200190815260200160002060006101000a81548160ff0219169083151502179055505b508080610b799061136d565b915050610a58565b5060008111610bc5576040517f08c379a0000000000000000000000000000000000000000000000000000000008152600401610bbc906114ca565b60405180910390fd5b60006001811115610bd957610bd86114ea565b5b856001811115610bec57610beb6114ea565b5b03610c115780836002016000828254610c059190611339565b92505081905550610c2d565b80836003016000828254610c259190611339565b925050819055505b505050505050565b610c3d610cb8565b600073ffffffffffffffffffffffffffffffffffffffff168173ffffffffffffffffffffffffffffffffffffffff1603610cac576040517f08c379a0000000000000000000000000000000000000000000000000000000008152600401610ca39061158b565b60405180910390fd5b610cb581610d36565b50565b610cc0610dfa565b73ffffffffffffffffffffffffffffffffffffffff16610cde61083d565b73ffffffffffffffffffffffffffffffffffffffff1614610d34576040517f08c379a0000000000000000000000000000000000000000000000000000000008152600401610d2b906115f7565b60405180910390fd5b565b60008060009054906101000a900473ffffffffffffffffffffffffffffffffffffffff169050816000806101000a81548173ffffffffffffffffffffffffffffffffffffffff021916908373ffffffffffffffffffffffffffffffffffffffff1602179055508173ffffffffffffffffffffffffffffffffffffffff168173ffffffffffffffffffffffffffffffffffffffff167f8be0079c531659141344cd1fd0a4f28419497f9722a3daafe3b4186f6b6457e060405160405180910390a35050565b600033905090565b600080fd5b6000819050919050565b610e1a81610e07565b8114610e2557600080fd5b50565b600081359050610e3781610e11565b92915050565b600060208284031215610e5357610e52610e02565b5b6000610e6184828501610e28565b91505092915050565b610e7381610e07565b82525050565b60008115159050919050565b610e8e81610e79565b82525050565b600060a082019050610ea96000830188610e6a565b610eb66020830187610e6a565b610ec36040830186610e6a565b610ed06060830185610e6a565b610edd6080830184610e85565b9695505050505050565b6000602082019050610efc6000830184610e6a565b92915050565b600073ffffffffffffffffffffffffffffffffffffffff82169050919050565b6000610f2d82610f02565b9050919050565b610f3d81610f22565b82525050565b6000602082019050610f586000830184610f34565b92915050565b60028110610f6b57600080fd5b50565b600081359050610f7d81610f5e565b92915050565b60008060408385031215610f9a57610f99610e02565b5b6000610fa885828601610e28565b9250506020610fb985828601610f6e565b9150509250929050565b610fcc81610f22565b8114610fd757600080fd5b50565b600081359050610fe981610fc3565b92915050565b60006020828403121561100557611004610e02565b5b600061101384828501610fda565b91505092915050565b60008151905061102b81610e11565b92915050565b60006020828403121561104757611046610e02565b5b60006110558482850161101c565b91505092915050565b600082825260208201905092915050565b7f4e4f545f415f44414f5f4d454d4245522e204e6f7420686f6c64696e6720616e60008201527f79204e4654730000000000000000000000000000000000000000000000000000602082015250565b60006110cb60268361105e565b91506110d68261106f565b604082019050919050565b600060208201905081810360008301526110fa816110be565b9050919050565b7f444541444c494e455f4e4f545f45584345454445440000000000000000000000600082015250565b600061113760158361105e565b915061114282611101565b602082019050919050565b600060208201905081810360008301526111668161112a565b9050919050565b7f50524f504f53414c5f414c52454144595f455845435554454400000000000000600082015250565b60006111a360198361105e565b91506111ae8261116d565b602082019050919050565b600060208201905081810360008301526111d281611196565b9050919050565b7f4e4f545f454e4f5547485f46554e445300000000000000000000000000000000600082015250565b600061120f60108361105e565b915061121a826111d9565b602082019050919050565b6000602082019050818103600083015261123e81611202565b9050919050565b61124e81610e79565b811461125957600080fd5b50565b60008151905061126b81611245565b92915050565b60006020828403121561128757611286610e02565b5b60006112958482850161125c565b91505092915050565b7f4e46545f4e4f545f464f525f53414c4500000000000000000000000000000000600082015250565b60006112d460108361105e565b91506112df8261129e565b602082019050919050565b60006020820190508181036000830152611303816112c7565b9050919050565b7f4e487b7100000000000000000000000000000000000000000000000000000000600052601160045260246000fd5b600061134482610e07565b915061134f83610e07565b92508282019050808211156113675761136661130a565b5b92915050565b600061137882610e07565b91507fffffffffffffffffffffffffffffffffffffffffffffffffffffffffffffffff82036113aa576113a961130a565b5b600182019050919050565b60006113c082610e07565b91506113cb83610e07565b92508282039050818111156113e3576113e261130a565b5b92915050565b7f444541444c494e455f4558434545444544000000000000000000000000000000600082015250565b600061141f60118361105e565b915061142a826113e9565b602082019050919050565b6000602082019050818103600083015261144e81611412565b9050919050565b600060408201905061146a6000830185610f34565b6114776020830184610e6a565b9392505050565b7f414c52454144595f564f54454400000000000000000000000000000000000000600082015250565b60006114b4600d8361105e565b91506114bf8261147e565b602082019050919050565b600060208201905081810360008301526114e3816114a7565b9050919050565b7f4e487b7100000000000000000000000000000000000000000000000000000000600052602160045260246000fd5b7f4f776e61626c653a206e6577206f776e657220697320746865207a65726f206160008201527f6464726573730000000000000000000000000000000000000000000000000000602082015250565b600061157560268361105e565b915061158082611519565b604082019050919050565b600060208201905081810360008301526115a481611568565b9050919050565b7f4f776e61626c653a2063616c6c6572206973206e6f7420746865206f776e6572600082015250565b60006115e160208361105e565b91506115ec826115ab565b602082019050919050565b60006020820190508181036000830152611610816115d4565b905091905056fea26469706673582212205f470e020c2e322d8dcd6f0f93eab38f34dd78ed8f2f868b7af075b23b07887464736f6c63430008110033",
  "linkReferences": {},
  "deployedLinkReferences": {}
}